:100000000C943F000C945C000C945C000C945C001D
:100010000C945C000C945C000C945C000C945C00F0
:100020000C94B7000C945C000C945C000C945C0085
:100030000C945C000C945C000C945C000C945C00D0
:100040000C945C000C945C000C945C000C945C00C0
:100050000C945C000C945C000C945C000C945C00B0
:100060000C94DC000C945C000C945C000C945C0020
:100070000C945C000C945C000C945C00FF05112453
:100080001FBECFEFCDBFDFE3DEBF28E3A0E0B8E3C4
:1000900001C01D92A13DB207E1F710E0CFE3D0E02F
:1000A00004C02197FE010E94A406CE33D107C9F7F0
:1000B0000E94E8050C94B9060C94000048EE53E049
:1000C00060E070E0FC014083518362837383089594
:1000D000813441F0823421F08034A9F480E0089525
:1000E00081E00895FB0180819181F1E08F27FB0180
:1000F00080839183FA0180819181F1E08F27FA0159
:1001000080839183EBCF82E00895019738F028E84F
:1001100033E1000021503109E1F7F7CF0895E0E223
:10012000F4E084E0818385830895813021E09207A3
:10013000E0F4FC01FC5E20812617A9F0209102105A
:1001400021FDFCCF809308109093091070E060931C
:100150000610709307108FB7F8949DE994BF93E051
:10016000909300108FBF81E0089580E008951F9262
:100170000F920FB60F9211248F939F93AF93BF935B
:100180008091C7389091C838A091C938B091CA38C9
:100190000196A11DB11D8093C7389093C838A093D4
:1001A000C938B093CA38BF91AF919F918F910F908A
:1001B0000FBE0F901F9018951F920F920FB60F92BF
:1001C00011242F938F939F93EF93FF9380911B089C
:1001D00086FF83C0109212381092003881FF35C01C
:1001E000109201381092003880912938823071F0D5
:1001F0008430C1F1E091013881E08E0F80930138A5
:10020000F0E0EE5FF74C8FEF80831DC0E09128385F
:10021000F0E0EE0FFF1FE65DF74C80819181E091E9
:10022000013821E02E0F20930138F0E0EE5FF74C0B
:100230008083E091013881E08E0F80930138F0E0F7
:10024000EE5FF74C90831092293883E080931A0870
:10025000FF91EF919F918F912F910F900FBE0F9073
:100260001F90189580912738E091013891E09E0FFA
:1002700090930138F0E0EE5FF74C80838091253851
:1002800090912638E091013891E09E0F90930138CB
:10029000F0E0EE5FF74C808380912538909126380E
:1002A000E091013881E08E0F80930138F0E0EE5F3D
:1002B000F74C90838091233890912438E091013855
:1002C00091E09E0F90930138F0E0EE5FF74C808351
:1002D0008091233890912438ACCF87FFB9CF81FF2C
:1002E00015C09091003880910138981768F4E0911A
:1002F000003881E08E0F80930038F0E0EE5FF74C1D
:10030000808180931D08A1CF8FEFFBCF80911238A1
:10031000803108F09ACF80911D08E091123891E069
:100320009E0F90931238F0E0ED5EF74C80838DCFF6
:100330000C948F000C948F000F931F93CF93DF9337
:100340008C01D0E0C0E0C017D10774F40E948F0088
:1003500088EC90E00E9485000E948F0088EC90E07D
:100360000E9485002196EFCFDF91CF911F910F91D1
:1003700008956C01C6010E949C0188EE93E00E94E2
:100380008500D0E0C0E0FE01EE0FFF1FE655F74C00
:100390007F012FEFE21AF20A81818F3F09F453C0E7
:1003A0000E948F0082E390E00E9485000E948F00EF
:1003B00082E390E00E94850010E000E00E948F0040
:1003C000F701808190E0002E02C0959587950A94F0
:1003D000E2F780FD42C088E290E00E9485000E9422
:1003E0008F0088E290E00E9485000F5F1F4F083069
:1003F000110521F710E000E0CE01880F991F9C0144
:100400002455374C79010E948F00F701808190E0DC
:10041000002E02C0959587950A94E2F780FD20C0D2
:1004200088E290E00E9485000E948F0088E290E0C0
:100430000E9485000F5F1F4F0830110521F788ECDF
:1004400090E00E9485002196C830D10509F09BCF2D
:1004500088EB9BE00E9485008DCF88E790E0BDCFC0
:1004600088E790E0DFCF2FB7F8946091C73870919C
:10047000C8388091C9389091CA382FBF08958F929B
:100480009F92AF92BF92CF92DF92EF92FF926B0159
:100490007C010E9433024B015C010E943302681907
:1004A00079098A099B096C157D058E059F05A8F3BE
:1004B000FF90EF90DF90CF90BF90AF909F908F9084
:1004C00008956091BF387091C0388091C138909183
:1004D000C2380895FC0161830895FC016283089588
:1004E00030E020E070E0409648E0FB01022E02C0C0
:1004F000F595E7950A94E2F7E0FF04C0FC01E20FEE
:10050000F31F40832F5F3F4F2830310571F7089567
:10051000FC01442311F06583089566830895FC016E
:10052000808586230895FC0180850895FC016583FC
:100530000895FC0166830895FC0167830895CF93B5
:10054000DF9300D0CDB7DEB780E38093A00083E0D7
:100550008093020681E08093000619821A828981C5
:100560009A81883E934034F489819A8101968983E7
:100570009A83F5CF0F900F90DF91CF910895CF938D
:10058000DF93FC0130E020E070E041E050E0EC015E
:100590006096CB01022E02C0959587950A94E2F7EA
:1005A00080FF10C0CA01022E01C0880F0A94EAF72A
:1005B000828380898860808BDE01A20FB31F8C91BB
:1005C00084608C932F5F3F4F2830310511F7DF9106
:1005D000CF9108958093060681E08093080680916C
:1005E0000B0680FFFCCF81E080930B068091100604
:1005F000909111060895DC019A01AB010E94240636
:100600002FEF33E040E050E00E940206CA01B9013A
:100610000895FC019FB7F89480912938833021F028
:100620009FBF90E080E008958091283880832091DA
:10063000253830912638FB012083318320912338DF
:1006400030912438FA0120833183109229389FBFDA
:1006500081E090E008959FB7F894809327386093E5
:10066000253870932638409323385093243884E0FB
:10067000809329389FBF0895803460F42FB7F89491
:10068000E82FF0E0EE0FFF1FE65DF74C80819181CF
:100690002FBF089590E080E0089598EF980F983369
:1006A00058F49FB7F894E82FF0E0EE0FFF1FE65DD7
:1006B000F74C608371839FBF0895803490F490E07D
:1006C000FC01EE0FFF1FE05FFB4E408151812FB711
:1006D000F894880F991FFC01E65DF74C4083518325
:1006E0002FBF08950F931F93CF93DF9398EF980F29
:1006F0009833E8F4282F30E0E9012896CC0FDD1F6D
:100700008FB7F894220F331FF901E65DF74C008193
:1007100011818FBF612FCE0101960E949500602F3D
:10072000CE01DF91CF911F910F910C949500DF9135
:10073000CF911F910F9108952F923F924F925F9208
:100740006F927F928F929F92AF92BF92CF92DF92E1
:10075000EF92FF920F931F93CF93DF93CDB7DEB746
:10076000C459D109CDBFDEBF8093CF389093D03824
:100770006093CD387093CE384093CB385093CC38BB
:10078000809141018111FCCF1092470181E080935B
:10079000400110924801109249011092000A1092F3
:1007A000200A1092210A8093000A2091480130917A
:1007B00049018091480190914901821B930B811559
:1007C0009440B8F38091200A9091210A1092000A77
:1007D00080E09DE2A1E3B1E08093BF389093C03800
:1007E000A093C138B093C2381092000A1092010A47
:1007F00088E391E08093260A9093270A81E0809312
:100800000A0A8BE08093000A78941092AA3890E04C
:1008100080E02FEFFC01EE0FFF1FE655F74C218320
:100820000196FC01EE0FFF1FE655F74C2083883040
:10083000910581F74090CF385090D0386090CD38F6
:100840007090CE388091001490910114A091021400
:10085000B09103140097A54AB54A79F48091101419
:10086000909111148415950541F480911214909182
:1008700013146816790609F4ECC08091031189837A
:10088000809104118A83809105118B8380910611D8
:100890008C83809107118D83809108118E838091C4
:1008A00009118F8380910A11888780910B118987A4
:1008B00080910C118A87CE0101964C01FE013B9676
:1008C000CF56DF4FE883F983C159D04025E233E2A8
:1008D000B2E2A4E8F4EECD56DF4FF883C359D0401E
:1008E000ECE9CC56DF4FE883C459D04092EF292E73
:1008F0004BEC342EF40181914F01282783EBA82E75
:10090000BB24B394C12CD12CE12CFF24F39400E040
:1009100010E04B2F5A2FCD56DF4F6881C359D0407E
:10092000CC56DF4F7881C459D040C1010E942F06B8
:10093000B42FA52FCD56DF4F6883C359D040CC5676
:10094000DF4F7883C459D0401C01CF56DF4F8881D8
:100950009981C159D0408816990661F640E050E06F
:1009600065EA75EA49835A836B837C831D821E8204
:100970001F82188619861A861B861C861D861E866F
:100980001F86188A498A5A8A6B8A7C8A49012D8B6C
:100990009E8A4B2F5A2FCD56DF4F6881C359D040C6
:1009A000CC56DF4F7881C459D040C10100E10E948C
:1009B00089062F8B388F94014B2F5A2FCD56DF4F3E
:1009C0006881C359D040CC56DF4F7881C459D0409C
:1009D000C10100E20E948906298F3A8F94014B2FB2
:1009E0005A2FCD56DF4F6881C359D040CC56DF4FC8
:1009F0007881C459D040C10100E30E9489062B8F41
:100A00003C8F8AE290E08D8F9E8F8091CB389091C1
:100A1000CC388F8F98A3FE01B196CE0101963C0190
:100A200080579F4F11921192E817F907D9F7912C2F
:100A3000812CF30161913F01C4010E94950088233C
:100A400009F451C0FFEF8F1A9F0A20E98216910422
:100A500081F780E9E0E0F4E1DE01119601900D926A
:100A60008A95E1F7409100145091011460910214AD
:100A7000709103142091101430911114809112146C
:100A80009091131449835A836B837C83298B3A8B0F
:100A90008B8B9C8B80E9FE013196AAE2B8E3019032
:100AA0000D928A95E1F710921C0881EE8093190847
:100AB00082E080931A0880E0CC56DF4FCDBFDEBFC6
:100AC000DF91CF911F910F91FF90EF90DF90CF902A
:100AD000BF90AF909F908F907F906F905F904F905E
:100AE0003F902F90089581E090E00E94B901CF934C
:100AF000DF93CDB7DEB72997CDBFDEBF8C018093E2
:100B0000BD389093BE386093BB387093BC3888ED85
:100B1000A89584BF809100018B6080930001809133
:100B2000010181FDFCCFA8950E9433026B017C017D
:100B300019821A821B821C82A8958091C3389091D9
:100B4000C438A091C538B091C6388C159D05AE0546
:100B5000BF05D0F001151105B9F0E091BD38F09155
:100B6000BE38CE010196099589819A81AB81BC81FD
:100B70008C0D9D1DAE1DBF1D8093C3389093C4384E
:100B8000A093C538B093C638E090BB38F090BC381D
:100B9000E114F10449F2AE014B5F5F4FBE01695FA2
:100BA0007F4FCE0109960E940903892B09F4BCCF1F
:100BB000AE014B5F5F4FBE01695F7F4F8985F701D3
:100BC00009954D815E816F8178850E942B03ACCFA2
:100BD00050E040E062E071E082E091E00E949C031E
:100BE000882321F088E090E00E94B90168E670E077
:100BF0008EE590E00E94770590E080E008951092E5
:100C0000AA380895A1E21A2EAA1BBB1BFD010DC034
:100C1000AA1FBB1FEE1FFF1FA217B307E407F507AC
:100C200020F0A21BB30BE40BF50B661F771F881F88
:100C3000991F1A9469F760957095809590959B011E
:100C4000AC01BD01CF0108950E94AA06A59F900D99
:100C5000B49F900DA49F800D911D11240895DF93E2
:100C6000CF931F930F939A9DF02D219FF00D8B9D95
:100C7000F00D8A9DE02DF10D039FF00D029FE00D18
:100C8000F11D4E9DE00DF11D5E9DF00D4F9DF00D8F
:100C90007F936F93BF92AF925F934F93D5010E9462
:100CA000AA068B01AC01D7010E94AA06EB01E80F4E
:100CB000F91FD6010E947E062F913F91D6010E9416
:100CC000AA06C60FD71FE81FF91FAF91BF910E9458
:100CD0007E062F913F910E94AA06C60FD71FE81FDC
:100CE000F91FD6010E94AA06E60FF71F9801BE0160
:100CF000CF010F911F91CF91DF9108950E94AA0615
:100D0000460F571FC81FD91F08F43196089597FD45
:100D10001094002E083098F00850232F342F452FC0
:100D2000562F672F782F892F912DF4CF15949795F3
:100D300087957795679557954795379527950A95A0
:100D4000AAF71124002D0895EE0FFF1F0590F491CE
:100D5000E02D0994A29FB001B39FC001A39F700D25
:100D6000811D1124911DB29F700D811D1124911DB3
:060D70000895F894FFCF86
:00000001FF
