:100000000C943F000C945C000C945C000C945C001D
:100010000C945C000C945C000C945C000C945C00F0
:100020000C9453010C945C000C945C000C945C00E8
:100030000C945C000C945C000C945C000C945C00D0
:100040000C945C000C945C000C945C000C945C00C0
:100050000C945C000C945C000C945C000C945C00B0
:100060000C9478010C945C000C945C000C945C0083
:100070000C945C000C945C000C945C00B30611249E
:100080001FBECFEFCDBFDFE3DEBF28E3A0E0B8E3C4
:1000900001C01D92A53EB207E1F710E0CFE3D0E02A
:1000A00004C02197FE010E945807CE33D107C9F73B
:1000B0000E9484060C946D070C940000AF92BF92CE
:1000C000CF92DF92EF92FF920F931F93CF93DF9324
:1000D0008C01B12CA12CF12CE12CD0E0C0E0CC247F
:1000E000C394D12C6FE080E494E00E943203B60107
:1000F0000E2C01C0660F0A94EAF780E494E00E9497
:1001000035036AE070E080E090E00E94DB0280E06E
:1001100094E00E942F0380958F7030E020E090E003
:10012000AC01022E02C0559547950A94E2F740FFB4
:100130000CC0A9014A0D5B1DB60102C0660F771FF6
:100140004A95E2F7AB01C62BD52B2F5F3F4F2430EA
:10015000310531F77FEFE71AF70A84E0A80EB11CEA
:10016000E4E0EE16F10409F0BDCFC0931238D0934D
:1001700013382091103830911138E0E0F8E390E026
:1001800080E061E070E0AE01082E02C05695479510
:100190000A94E2F7A42FA170A901082E02C0569577
:1001A00047950A94E2F74170A41302C0108205C07B
:1001B00040814F5F4530F0F44083019631968031A5
:1001C000910509F720931038309311388AE090E0B8
:1001D000A0E0B0E0F80180839183A283B383DF9134
:1001E000CF911F910F91FF90EF90DF90CF90BF9034
:1001F000AF900895AB01082E02C0440F551F0A941A
:10020000E2F724273527D2CF813441F0823421F020
:100210008034A9F480E0089581E00895FB01808195
:100220009181F1E08F27FB0180839183FA01808126
:100230009181F1E08F27FA0180839183EBCF82E0F7
:100240000895019738F028E833E100002150310982
:10025000E1F7F7CF0895E0E2F4E084E0818385835D
:100260000895813021E09207E0F4FC01FC5E2081DA
:100270002617A9F02091021021FDFCCF80930810D1
:100280009093091070E060930610709307108FB779
:10029000F8949DE994BF93E0909300108FBF81E0A4
:1002A000089580E008951F920F920FB60F921124C7
:1002B0008F939F93AF93BF938091DB389091DC38FD
:1002C000A091DD38B091DE380196A11DB11D80935B
:1002D000DB389093DC38A093DD38B093DE38BF91E3
:1002E000AF919F918F910F900FBE0F901F90189517
:1002F0001F920F920FB60F9211242F938F939F93FB
:10030000EF93FF9380911B0886FF83C010922638DD
:100310001092143881FF35C010921538109214389D
:1003200080913D38823071F08430C1F1E091153810
:1003300081E08E0F80931538F0E0EA5EF74C8FEF86
:1003400080831DC0E0913C38F0E0EE0FFF1FE25CBF
:10035000F74C80819181E091153821E02E0F209398
:100360001538F0E0EA5EF74C8083E091153881E0C3
:100370008E0F80931538F0E0EA5EF74C9083109270
:100380003D3883E080931A08FF91EF919F918F9100
:100390002F910F900FBE0F901F90189580913B38B2
:1003A000E091153891E09E0F90931538F0E0EA5EE9
:1003B000F74C80838091393890913A38E091153824
:1003C00091E09E0F90931538F0E0EA5EF74C808341
:1003D0008091393890913A38E091153881E08E0F4C
:1003E00080931538F0E0EA5EF74C908380913738BF
:1003F00090913838E091153891E09E0F9093153820
:10040000F0E0EA5EF74C808380913738909138387D
:10041000ACCF87FFB9CF81FF15C090911438809180
:100420001538981768F4E091143881E08E0F8093A6
:100430001438F0E0EA5EF74C808180931D08A1CF6C
:100440008FEFFBCF80912638803108F09ACF8091D2
:100450001D08E091263891E09E0F90932638F0E039
:10046000E95DF74C80838DCF0C942B010C942B010C
:100470000F931F93CF93DF938C01D0E0C0E0C017A0
:10048000D10774F40E942B0188EC90E00E942101B6
:100490000E942B0188EC90E00E9421012196EFCF71
:1004A000DF91CF911F910F9108956C01C6010E94B9
:1004B000380288EE93E00E942101D0E0C0E0FE0106
:1004C000EE0FFF1FE254F74C7F012FEFE21AF20A02
:1004D00081818F3F09F453C00E942B0182E390E099
:1004E0000E9421010E942B0182E390E00E942101E1
:1004F00010E000E00E942B01F701808190E0002EC7
:1005000002C0959587950A94E2F780FD42C088E283
:1005100090E00E9421010E942B0188E290E00E945D
:1005200021010F5F1F4F0830110521F710E000E097
:10053000CE01880F991F9C012054374C79010E94ED
:100540002B01F701808190E0002E02C095958795E0
:100550000A94E2F780FD20C088E290E00E94210129
:100560000E942B0188E290E00E9421010F5F1F4F43
:100570000830110521F788EC90E00E9421012196B6
:10058000C830D10509F09BCF88EB9BE00E94210188
:100590008DCF88E790E0BDCF88E790E0DFCF2FB721
:1005A000F8946091DB387091DC388091DD3890915F
:1005B000DE382FBF08958F929F92AF92BF92CF9255
:1005C000DF92EF92FF926B017C010E94CF024B0100
:1005D0005C010E94CF02681979098A099B096C1590
:1005E0007D058E059F05A8F3FF90EF90DF90CF90DB
:1005F000BF90AF909F908F9008956091D338709185
:10060000D4388091D5389091D6380895FC01618313
:100610000895FC016283089530E020E070E0409688
:1006200048E0FB01022E02C0F595E7950A94E2F737
:10063000E0FF04C0FC01E20FF31F40832F5F3F4F38
:100640002830310571F70895FC01442311F06583CA
:10065000089566830895FC01808586230895FC0132
:1006600080850895FC0165830895FC0166830895E3
:10067000FC0167830895CF93DF9300D0CDB7DEB739
:1006800080E38093A00083E08093020681E0809362
:10069000000619821A8289819A81883E934034F437
:1006A00089819A81019689839A83F5CF0F900F9063
:1006B000DF91CF910895CF93DF93FC0130E020E0EC
:1006C00070E041E050E0EC016096CB01022E02C0E8
:1006D000959587950A94E2F780FF10C0CA01022E13
:1006E00001C0880F0A94EAF7828380898860808B32
:1006F000DE01A20FB31F8C9184608C932F5F3F4F5C
:100700002830310511F7DF91CF91089580930606C7
:1007100081E08093080680910B0680FFFCCF81E08A
:1007200080930B0680911006909111060895DC01CC
:100730009A01AB010E94D8062FEF33E040E050E071
:100740000E94B606CA01B9010895FC019FB7F8944A
:1007500080913D38833021F09FBF90E080E0089584
:1007600080913C3880832091393830913A38FB01B0
:10077000208331832091373830913838FA01208333
:10078000318310923D389FBF81E090E008959FB77C
:10079000F89480933B386093393870933A3840939B
:1007A00037385093383884E080933D389FBF0895A0
:1007B000803460F42FB7F894E82FF0E0EE0FFF1FBD
:1007C000E25CF74C808191812FBF089590E080E03A
:1007D000089598EF980F983358F49FB7F894E82F3E
:1007E000F0E0EE0FFF1FE25CF74C608371839FBF68
:1007F0000895803490F490E0FC01EE0FFF1FE05F5D
:10080000FB4E408151812FB7F894880F991FFC014E
:10081000E25CF74C408351832FBF08950F931F93E1
:10082000CF93DF9398EF980F9833E8F4282F30E0B8
:10083000E9012896CC0FDD1F8FB7F894220F331FE4
:10084000F901E25CF74C008111818FBF612FCE016D
:1008500001960E943101602FCE01DF91CF911F914F
:100860000F910C943101DF91CF911F910F91089559
:100870002F923F924F925F926F927F928F929F92B0
:10088000AF92BF92CF92DF92EF92FF920F931F939E
:10089000CF93DF93CDB7DEB7C459D109CDBFDEBF4B
:1008A0008093E3389093E4386093E1387093E238B2
:1008B0004093DF385093E038809141018111FCCFA3
:1008C0001092470181E080934001109248011092FC
:1008D00049011092000A1092200A1092210A809376
:1008E000000A20914801309149018091480190917E
:1008F0004901821B930B81159440B8F38091200A23
:100900009091210A1092000A80E09DE2A1E3B1E0FB
:100910008093D3389093D438A093D538B093D638F9
:100920001092000A1092010A88E391E08093260A4F
:100930009093270A81E080930A0A8BE08093000A53
:1009400078941092BE3890E080E02FEFFC01EE0F1B
:10095000FF1FE254F74C21830196FC01EE0FFF1FAD
:10096000E254F74C20838830910581F74090E338BA
:100970005090E4386090E1387090E2388091001433
:1009800090910114A0910214B09103140097A54A0C
:10099000B54A79F48091101490911114841595053D
:1009A00041F480911214909113146816790609F499
:1009B000ECC0809103118983809104118A83809116
:1009C00005118B83809106118C83809107118D8393
:1009D000809108118E83809109118F8380910A1173
:1009E000888780910B11898780910C118A87CE01AD
:1009F00001964C01FE013B96CF56DF4FE883F98309
:100A0000C159D04025E233E2B2E2A4E8F4EECD567B
:100A1000DF4FF883C359D040ECE9CC56DF4FE88371
:100A2000C459D04092EF292E4BEC342EF401819121
:100A30004F01282783EBA82EBB24B394C12CD12CC3
:100A4000E12CFF24F39400E010E04B2F5A2FCD56F9
:100A5000DF4F6881C359D040CC56DF4F7881C459ED
:100A6000D040C1010E94E306B42FA52FCD56DF4F21
:100A70006883C359D040CC56DF4F7883C459D040E7
:100A80001C01CF56DF4F88819981C159D04088160B
:100A9000990661F640E050E065EA75EA49835A83B9
:100AA0006B837C831D821E821F82188619861A869C
:100AB0001B861C861D861E861F86188A498A5A8AAE
:100AC0006B8A7C8A49012D8B9E8A4B2F5A2FCD56DB
:100AD000DF4F6881C359D040CC56DF4F7881C4596D
:100AE000D040C10100E10E943D072F8B388F940157
:100AF0004B2F5A2FCD56DF4F6881C359D040CC566B
:100B0000DF4F7881C459D040C10100E20E943D0707
:100B1000298F3A8F94014B2F5A2FCD56DF4F688182
:100B2000C359D040CC56DF4F7881C459D040C10161
:100B300000E30E943D072B8F3C8F8AE290E08D8F6F
:100B40009E8F8091DF389091E0388F8F98A3FE01BF
:100B5000B196CE0101963C0180579F4F11921192A0
:100B6000E817F907D9F7912C812CF30161913F0126
:100B7000C4010E943101882309F451C0FFEF8F1A8C
:100B80009F0A20E98216910481F780E9E0E0F4E110
:100B9000DE01119601900D928A95E1F740910014C3
:100BA000509101146091021470910314209110145B
:100BB00030911114809112149091131449835A8327
:100BC0006B837C83298B3A8B8B8B9C8B80E9FE011A
:100BD0003196AEE3B8E301900D928A95E1F7109259
:100BE0001C0881EE8093190882E080931A0880E047
:100BF000CC56DF4FCDBFDEBFDF91CF911F910F915C
:100C0000FF90EF90DF90CF90BF90AF909F908F902C
:100C10007F906F905F904F903F902F90089581E06C
:100C200090E00E945502CF93DF93CDB7DEB72997AE
:100C3000CDBFDEBF8C018093D1389093D2386093C2
:100C4000CF387093D03888EDA89584BF809100018B
:100C50008B60809300018091010181FDFCCFA895FC
:100C60000E94CF026B017C0119821A821B821C82B6
:100C7000A8958091D7389091D838A091D938B09163
:100C8000DA388C159D05AE05BF05D0F001151105AC
:100C9000B9F0E091D138F091D238CE0101960995A2
:100CA00089819A81AB81BC818C0D9D1DAE1DBF1DBC
:100CB0008093D7389093D838A093D938B093DA3846
:100CC000E090CF38F090D038E114F10449F2AE0151
:100CD0004B5F5F4FBE01695F7F4FCE0109960E9457
:100CE000A503892B09F4BCCFAE014B5F5F4FBE015A
:100CF000695F7F4F8985F70109954D815E816F811D
:100D000078850E94C703ACCF50E040E062E071E01C
:100D100082E091E00E943804882321F088E090E08E
:100D20000E9455026FE080E494E00E9406036FE0A9
:100D300080E494E00E9432036FE080E094E00E943F
:100D400009036FE080E094E00E940C0310921038D9
:100D50001092113864E071E08EE590E00E94130675
:100D600090E080E008951092BE380895A1E21A2E16
:100D7000AA1BBB1BFD010DC0AA1FBB1FEE1FFF1F3F
:100D8000A217B307E407F50720F0A21BB30BE40B8F
:100D9000F50B661F771F881F991F1A9469F76095D6
:100DA0007095809590959B01AC01BD01CF01089590
:100DB0000E945E07A59F900DB49F900DA49F800D8B
:100DC000911D11240895DF93CF931F930F939A9D44
:100DD000F02D219FF00D8B9DF00D8A9DE02DF10DE2
:100DE000039FF00D029FE00DF11D4E9DE00DF11DE2
:100DF0005E9DF00D4F9DF00D7F936F93BF92AF926C
:100E00005F934F93D5010E945E078B01AC01D70120
:100E10000E945E07EB01E80FF91FD6010E9432071E
:100E20002F913F91D6010E945E07C60FD71FE81F82
:100E3000F91FAF91BF910E9432072F913F910E94FD
:100E40005E07C60FD71FE81FF91FD6010E945E0775
:100E5000E60FF71F9801BE01CF010F911F91CF91AF
:100E6000DF9108950E945E07460F571FC81FD91FC4
:100E700008F43196089597FD1094002E083098F0EC
:100E80000850232F342F452F562F672F782F892F67
:100E9000912DF4CF159497958795779567955795EC
:100EA0004795379527950A95AAF71124002D08959F
:100EB000EE0FFF1F0590F491E02D0994A29FB00161
:100EC000B39FC001A39F700D811D1124911DB29F7E
:0E0ED000700D811D1124911D0895F894FFCF1F
:00000001FF
